:020000040800F2
:10000000005000200D110008310F0008370F0008C4
:100010003D0F0008430F0008490F000800000000D2
:100020000000000000000000000000004F0F00086A
:100030005B0F000800000000670F0008730F000846
:1000400055110008551100085511000855110008F8
:1000500055110008551100085511000855110008E8
:1000600055110008551100085511000855110008D8
:1000700055110008551100085511000855110008C8
:1000800055110008551100085511000855110008B8
:1000900055110008551100085511000855110008A8
:1000A0005511000855110008551100085511000898
:1000B0005511000855110008551100085511000888
:1000C0005511000855110008551100085511000878
:1000D0005511000855110008551100085511000868
:1000E00055110008551100085511000800000000C6
:1000F0000000000000000000000000000000000000
:0C01000000000000000000005FF808F1A3
:1001100010B5054C237833B9044B13B10448AFF341
:1001200000800123237010BD0402002000000000A5
:10013000C8B6000808B5034B1BB103490348AFF329
:10014000008008BD0000000008020020C8B60008BA
:10015000034613F8012B002AFBD1181A0138704707
:1001600081F0004102E000BF83F0004330B54FEA68
:1001700041044FEA430594EA050F08BF90EA020FD5
:100180001FBF54EA000C55EA020C7FEA645C7FEA68
:10019000655C00F0E2804FEA5454D4EB5555B8BF8B
:1001A0006D420CDD2C4480EA020281EA030382EAFC
:1001B000000083EA010180EA020281EA0303362D8E
:1001C00088BF30BD11F0004F4FEA01314FF4801C61
:1001D0004CEA113102D0404261EB410113F0004F73
:1001E0004FEA03334CEA133302D0524263EB43032A
:1001F00094EA050F00F0A780A4F10104D5F1200EC8
:100200000DDB02FA0EFC22FA05F2801841F1000122
:1002100003FA0EF2801843FA05F359410EE0A5F1F6
:1002200020050EF1200E012A03FA0EFC28BF4CF027
:10023000020C43FA05F3C01851EBE37101F00045DD
:1002400007D54FF0000EDCF1000C7EEB00006EEBEA
:100250000101B1F5801F1BD3B1F5001F0CD3490874
:100260005FEA30004FEA3C0C04F101044FEA4452CB
:1002700012F5800F80F09A80BCF1004F08BF5FEA52
:10028000500C50F1000041EB045141EA050130BD32
:100290005FEA4C0C404141EB0101013C28BFB1F544
:1002A000801FE9D291F0000F04BF01460020B1FA8F
:1002B00081F308BF2033A3F10B03B3F120020CDA62
:1002C0000C3208DD02F1140CC2F10C0201FA0CF040
:1002D00021FA02F10CE002F11402D8BFC2F1200CA5
:1002E00001FA02F120FA0CFCDCBF41EA0C0190405B
:1002F000E41AA2BF01EB0451294330BD6FEA0404A4
:100300001F3C1CDA0C340EDC04F11404C4F120028E
:1003100020FA04F001FA02F340EA030021FA04F3A0
:1003200045EA030130BDC4F10C04C4F1200220FAF7
:1003300002F001FA04F340EA0300294630BD21FA35
:1003400004F0294630BD94F0000F83F4801306BFFB
:1003500081F480110134013D4EE77FEA645C18BFEF
:100360007FEA655C29D094EA050F08BF90EA020F86
:1003700005D054EA000C04BF1946104630BD91EA7E
:10038000030F1EBF0021002030BD5FEA545C05D181
:100390004000494128BF41F0004130BD14F58004C0
:1003A0003CBF01F5801130BD01F0004545F0FE4134
:1003B00041F470014FF0000030BD7FEA645C1ABF69
:1003C000194610467FEA655C1CBF0B46024650EAA0
:1003D000013406BF52EA033591EA030F41F40021CC
:1003E00030BD00BF90F0000F04BF0021704730B552
:1003F0004FF4806404F132044FF000054FF0000127
:1004000050E700BF90F0000F04BF0021704730B5E7
:100410004FF4806404F1320410F0004548BF4042BC
:100420004FF000013EE700BF42004FEAE2014FEA11
:1004300031014FEA02701FBF12F07F4393F07F4FEC
:1004400081F06051704732F07F4208BF704793F0EF
:100450007F4F04BF41F40021704730B54FF4607402
:1004600001F0004521F000411CE700BF50EA010205
:1004700008BF704730B54FF000050AE050EA0102AE
:1004800008BF704730B511F0004502D5404261EB1E
:1004900041014FF4806404F132045FEA915C3FF45F
:1004A000D8AE4FF003025FEADC0C18BF03325FEAFC
:1004B000DC0C18BF033202EBDC02C2F1200300FAAD
:1004C00003FC20FA02F001FA03FE40EA0E0021FAD2
:1004D00002F11444BDE600BF70B54FF0FF0C4CF4C0
:1004E000E06C1CEA11541DBF1CEA135594EA0C0F72
:1004F00095EA0C0F00F0DEF82C4481EA030621EAAD
:100500004C5123EA4C5350EA013518BF52EA0335E7
:1005100041F4801143F4801338D0A0FB02CE4FF099
:100520000005E1FB02E506F00042E0FB03E54FF0C9
:100530000006E1FB03569CF0000F18BF4EF0010EC1
:10054000A4F1FF04B6F5007F64F5407404D25FEABD
:100550004E0E6D4146EB060642EAC62141EA555170
:100560004FEAC52040EA5E504FEACE2EB4F1FD0CB2
:1005700088BFBCF5E06F1ED8BEF1004F08BF5FEA30
:10058000500E50F1000041EB045170BD06F00046E2
:1005900046EA010140EA020081EA0301B4EB5C048F
:1005A000C2BFD4EB0C0541EA045170BD41F4801187
:1005B0004FF0000E013C00F3AB8014F1360FDEBFAC
:1005C000002001F0004170BDC4F10004203C35DA88
:1005D0000C341BDC04F11404C4F1200500FA05F30B
:1005E00020FA04F001FA05F240EA020001F00042AC
:1005F00021F0004110EBD37021FA04F642EB060122
:100600005EEA430E08BF20EAD37070BDC4F10C044B
:10061000C4F1200500FA04F320FA05F001FA04F20F
:1006200040EA020001F0004110EBD37041F10001FB
:100630005EEA430E08BF20EAD37070BDC4F1200506
:1006400000FA05F24EEA020E20FA04F301FA05F26E
:1006500043EA020321FA04F001F0004121FA04F216
:1006600020EA020000EBD3705EEA430E08BF20EAE6
:10067000D37070BD94F0000F0FD101F00046400020
:1006800041EB010111F4801F08BF013CF7D041EAA2
:10069000060195F0000F18BF704703F000465200A6
:1006A00043EB030313F4801F08BF013DF7D043EA77
:1006B0000603704794EA0C0F0CEA135518BF95EA2D
:1006C0000C0F0CD050EA410618BF52EA4306D1D1B4
:1006D00081EA030101F000414FF0000070BD50EAD3
:1006E000410606BF1046194652EA430619D094EA5D
:1006F0000C0F02D150EA013613D195EA0C0F05D147
:1007000052EA03361CBF104619460AD181EA03019A
:1007100001F0004141F0FE4141F470014FF0000052
:1007200070BD41F0FE4141F4780170BD70B54FF0ED
:10073000FF0C4CF4E06C1CEA11541DBF1CEA13556D
:1007400094EA0C0F95EA0C0F00F0A7F8A4EB05044F
:1007500081EA030E52EA03354FEA013100F0888046
:100760004FEA03334FF0805545EA131343EA12630F
:100770004FEA022245EA111545EA10654FEA0026C4
:100780000EF000419D4208BF964244F1FD0404F57D
:10079000407402D25B084FEA3202B61A65EB0305D9
:1007A0005B084FEA32024FF480104FF4002CB6EB96
:1007B000020E75EB030E22BFB61A754640EA0C0016
:1007C0005B084FEA3202B6EB020E75EB030E22BF56
:1007D000B61A754640EA5C005B084FEA3202B6EB97
:1007E000020E75EB030E22BFB61A754640EA9C0056
:1007F0005B084FEA3202B6EB020E75EB030E22BF26
:10080000B61A754640EADC0055EA060E18D04FEAE3
:10081000051545EA16754FEA06164FEAC30343EA83
:1008200052734FEAC2025FEA1C1CC0D111F4801F50
:100830000BD141EA00014FF000004FF0004CB6E749
:1008400011F4801F04BF01430020B4F1FD0C88BFE8
:10085000BCF5E06F3FF6AFAEB5EB030C04BFB6EBF3
:10086000020C5FEA500C50F1000041EB045170BDE6
:100870000EF0004E4EEA113114EB5C04C2BFD4EB13
:100880000C0541EA045170BD41F480114FF0000E97
:10089000013C90E645EA060E8DE60CEA135594EA13
:1008A0000C0F08BF95EA0C0F3FF43BAF94EA0C0F16
:1008B0000AD150EA01347FF434AF95EA0C0F7FF48B
:1008C00025AF104619462CE795EA0C0F06D152EADF
:1008D00003353FF4FDAE1046194622E750EA4106C3
:1008E00018BF52EA43067FF4C5AE50EA41047FF4D4
:1008F0000DAF52EA43057FF4EBAE12E74FF0FF3C39
:1009000006E000BF4FF0010C02E000BF4FF0010C09
:100910004DF804CD4FEA410C7FEA6C5C4FEA430C82
:1009200018BF7FEA6C5C1BD001B050EA410C0CBFD1
:1009300052EA430C91EA030F02BF90EA020F002033
:10094000704710F1000F91EA030F58BF994208BF9A
:1009500090422CBFD8176FEAE37040F00100704757
:100960004FEA410C7FEA6C5C02D150EA013C07D1AE
:100970004FEA430C7FEA6C5CD6D152EA033CD3D0F9
:100980005DF8040B704700BF8446104662468C46F3
:100990001946634600E000BF01B5FFF7B7FF002826
:1009A00048BF10F1000F01BD4DF808EDFFF7F4FF4F
:1009B0000CBF012000205DF808FB00BF4DF808EDDA
:1009C000FFF7EAFF34BF012000205DF808FB00BFFD
:1009D0004DF808EDFFF7E0FF94BF012000205DF81F
:1009E00008FB00BF4DF808EDFFF7CEFF94BF0120D4
:1009F00000205DF808FB00BF4DF808EDFFF7C4FFCD
:100A000034BF012000205DF808FB00BF4FEA410C15
:100A10007FEA6C5C02D150EA013C0AD14FEA430CF8
:100A20007FEA6C5C02D152EA033C02D14FF0000035
:100A300070474FF0010070474FEA410212F5001273
:100A400015D211D56FF47873B3EB625212D94FEA15
:100A5000C12343F0004343EA505311F0004F23FAFF
:100A600002F018BF404270474FF00000704750EA54
:100A7000013005D111F0004008BF6FF00040704711
:100A80004FF00000704700BF80B5ADF57E7D00AF30
:100A90003B46C7F8F43300F05FFB00F077F800F056
:100AA00009F900F0AFF800F0DBF8D7F8F433334A77
:100AB000C3F8A023D7F8F433522283F898230022F6
:100AC0004FF480712E4800F035FE022000F0A6FBA6
:100AD00001224FF480712A4800F02CFE022000F021
:100AE0009DFBD7F8F40302F0A9FCD7F8F40302F059
:100AF0004DFCD7F8F40302F082FC0321D7F8F4038D
:100B000002F0CAFD4CF25031D7F8F40302F03AFE7D
:100B10004FF4FA71D7F8F40302F0BEFFD7F8F403EC
:100B200003F0F8F8D7F8F40303F076F907F56973E2
:100B30001946D7F8F40303F029FB97F8BF331A4698
:100B4000B7F9BC3307F570700E4908F05FFC07F584
:100B500070731846FFF7FCFA03469AB207F57071F6
:100B60004FF6FF73084802F091FA4FF47A7000F0E4
:100B700055FBD7F8F40303F039F9D3E7200200203E
:100B8000000C0140E0B600087402002080B590B06F
:100B900000AF07F1180328220021184608F099FC3D
:100BA0003B1D00221A605A609A60DA601A610223C3
:100BB000BB610123BB621023FB6200237B6307F14F
:100BC0001803184601F002FE0346002B01D000F086
:100BD000FDF80F237B600023BB600023FB60002334
:100BE0003B6100237B613B1D0021184602F070F839
:100BF0000346002B01D000F0E9F800BF4037BD46A6
:100C000080BD000080B500AF124B134A1A60114B33
:100C1000124A5A600F4B00229A600E4B0022DA6093
:100C20000C4B4FF480421A610A4B00225A61094B67
:100C300000229A61074B0022DA61064B00221A62F9
:100C4000044800F08FFD0346002B01D000F0BEF8F1
:100C500000BF80BD2002002000540040A08601009B
:100C600080B500AF114B124A1A60104B4FF4E132BD
:100C70005A600E4B00229A600C4B0022DA600B4B3C
:100C800000221A61094B0C225A61084B00229A611A
:100C9000064B0022DA61054802F0A8F90346002B52
:100CA00001D000F093F800BF80BD00BF74020020A7
:100CB0000038014080B588B000AF07F11003002272
:100CC0001A605A609A60DA603D4B9B693C4A43F077
:100CD000100393613A4B9B6903F01003FB60FB68C0
:100CE000374B9B69364A43F004039361344B9B694D
:100CF00003F00403BB60BB68314B9B69304A43F08F
:100D0000080393612E4B9B6903F008037B607B68AB
:100D100001224FF480412B4800F00CFD00224FF4DB
:100D20000041284800F006FD00224FF4807126485B
:100D300000F000FD01224FF40071234800F0FAFC9E
:100D40004FF480433B6101237B610023BB6103239C
:100D5000FB6107F1100319461A4800F067FB4FF4D6
:100D600000433B6101237B610023BB610223FB61E4
:100D700007F110031946134800F058FB4FF4807335
:100D80003B6101237B610023BB610223FB6107F10F
:100D9000100319460C4800F049FB4FF400733B6107
:100DA00001237B610023BB610323FB6107F1100377
:100DB0001946054800F03AFB00BF2037BD4680BD0C
:100DC0000010024000100140000C014080B400AF50
:100DD00072B600BFFEE7000080B483B000AF0E4BD8
:100DE0009B690D4A43F0010393610B4B9B6903F030
:100DF00001037B607B68084BDB69074A43F0805343
:100E0000D361054BDB6903F080533B603B6800BF57
:100E10000C37BD4680BC70470010024080B588B0DA
:100E200000AF786007F1100300221A605A609A60E0
:100E3000DA607B681B68154A934223D1144B9B6987
:100E4000134A43F008039361114B9B6903F00803B5
:100E5000FB60FB68C0233B6112237B610323FB61C2
:100E600007F1100319460B4800F0E0FA084BDB6964
:100E7000074A43F40013D361054BDB6903F4001305
:100E8000BB60BB6800BF2037BD4680BD005400403A
:100E900000100240000C014080B588B000AF7860BF
:100EA00007F1100300221A605A609A60DA607B68CA
:100EB0001B681C4A934231D11B4B9B691A4A43F46D
:100EC00080439361184B9B6903F48043FB60FB688C
:100ED000154B9B69144A43F004039361124B9B69C1
:100EE00003F00403BB60BB684FF400733B61022353
:100EF0007B610323FB6107F1100319460B4800F0E7
:100F000095FA4FF480633B6100237B610023BB6152
:100F100007F110031946054800F088FA00BF203792
:100F2000BD4680BD0038014000100240000801406D
:100F300080B400AFFEE780B400AFFEE780B400AF3E
:100F4000FEE780B400AFFEE780B400AFFEE780B4F8
:100F500000AF00BFBD4680BC704780B400AF00BF8B
:100F6000BD4680BC704780B400AF00BFBD4680BCAA
:100F7000704780B500AF00F035F900BF80BD80B488
:100F800000AF01231846BD4680BC704780B582B0D3
:100F900000AF7860396008F001FB034616221A6042
:100FA0004FF0FF3318460837BD4680BD80B582B08C
:100FB00000AF78604FF0FF317868FFF7E7FFFEE79A
:100FC00080B586B000AFF860B9607A6000237B61BD
:100FD0000AE0AFF300800146BB685A1CBA60CAB28F
:100FE0001A707B6901337B617A697B689A42F0DB16
:100FF0007B6818461837BD4680BD80B586B000AF07
:10100000F860B9607A6000237B6109E0BB685A1C14
:10101000BA601B781846AFF300807B6901337B61AF
:101020007A697B689A42F1DB7B6818461837BD46BF
:1010300080BD80B483B000AF78604FF0FF331846B6
:101040000C37BD4680BC704780B483B000AF786079
:1010500039603B684FF400525A60002318460C3741
:10106000BD4680BC704780B483B000AF7860012378
:1010700018460C37BD4680BC704780B485B000AFC1
:10108000F860B9607A60002318461437BD4680BC0A
:101090007047000080B586B000AF7860144A154BE9
:1010A000D31A7B617B693B61134B1B68002B02D118
:1010B000114B124A1A60104B1A687B6813443A6944
:1010C0009A4207D208F06AFA03460C221A604FF0DF
:1010D000FF3309E0084B1B68FB60074B1A687B680D
:1010E0001344054A1360FB6818461837BD4680BD97
:1010F0000050002000040000BC0200201005002069
:1011000080B400AF00BFBD4680BC7047FFF7F8FF5A
:101110000B480C490C4A002302E0D458C450043355
:10112000C4188C42F9D3094A094C002301E013602A
:101130000432A242FBD308F037FAFFF7A5FC704750
:101140000000002004020020CCBA000804020020A5
:1011500010050020FEE7000080B500AF084B1B68BB
:10116000074A43F010031360032000F02BF90F200F
:1011700000F008F8FFF730FE0023184680BD00BFDE
:101180000020024080B582B000AF7860124B1A6830
:10119000124B1B7819464FF47A73B3FBF1F3B2FB91
:1011A000F3F3184600F035F90346002B01D0012374
:1011B0000EE07B680F2B0AD8002279684FF0FF30D1
:1011C00000F00BF9064A7B681360002300E001235E
:1011D00018460837BD4680BD0000002008000020EA
:1011E0000400002080B400AF054B1B781A46054B65
:1011F0001B681344034A136000BFBD4680BC7047A0
:1012000008000020C002002080B400AF024B1B6821
:101210001846BD4680BC7047C002002080B584B02F
:1012200000AF7860FFF7F0FFB8607B68FB60FB6899
:10123000B3F1FF3F05D00A4B1B781A46FB681344F5
:10124000FB6000BFFFF7E0FF0246BB68D31AFA68F5
:101250009A42F7D800BF00BF1037BD4680BD00BF1F
:101260000800002080B485B000AF78607B6803F090
:101270000703FB600C4BDB68BB60BA684FF6FF03EB
:101280001340BB60FB681A02BB68134343F0BF63A3
:1012900043F40033BB60044ABB68D36000BF14371B
:1012A000BD4680BC704700BF00ED00E080B400AFD9
:1012B000044BDB681B0A03F007031846BD4680BCDD
:1012C000704700BF00ED00E080B483B000AF03467C
:1012D0003960FB7197F90730002B0ADB3B68DAB203
:1012E0000C4997F907301201D2B20B4483F800235E
:1012F0000AE03B68DAB20849FB7903F00F03043BCC
:101300001201D2B20B441A7600BF0C37BD4680BC26
:10131000704700BF00E100E000ED00E080B489B05C
:1013200000AFF860B9607A60FB6803F00703FB6107
:10133000FB69C3F10703042B28BF0423BB61FB69CE
:101340000433062B02D9FB69033B00E000237B61D9
:101350004FF0FF32BB6902FA03F3DA43BB681A406D
:101360007B699A404FF0FF317B6901FA03F3D9435F
:101370007B680B40134318462437BD4680BC70473A
:1013800080B582B000AF78607B68013BB3F1807FAD
:1013900001D301230FE00A4A7B68013B53600F2110
:1013A0004FF0FF30FFF790FF054B00229A60044B8F
:1013B00007221A60002318460837BD4680BD00BFCB
:1013C00010E000E080B582B000AF78607868FFF789
:1013D00049FF00BF0837BD4680BD80B586B000AF6D
:1013E0000346B9607A60FB7300237B61FFF75EFF01
:1013F00078617A68B9687869FFF790FF024697F9D3
:101400000F3011461846FFF75FFF00BF1837BD4683
:1014100080BD80B582B000AF78607868FFF7B0FF1C
:10142000034618460837BD4680BD000080B48BB027
:1014300000AF7860396000237B6200233B6269E182
:1014400001227B6A02FA03F3FB613B681B68FA69BD
:101450001340BB61BA69FB699A4240F058813B680E
:101460005B689A4A93425ED0984A934275D8984AEC
:10147000934258D0964A93426FD8964A934252D09C
:10148000944A934269D8944A93424CD0924A9342E8
:1014900063D8924A934246D0904A93425DD8122B29
:1014A0002AD8122B59D801A252F823F02715000888
:1014B0000115000813150008551500085B150008F4
:1014C0005B1500085B1500085B1500085B1500083C
:1014D0005B1500085B1500085B1500085B1500082C
:1014E0005B1500085B1500085B1500085B1500081C
:1014F000091500081D150008794A934213D02CE005
:101500003B68DB683B6229E03B68DB6804333B6295
:1015100024E03B68DB6808333B621FE03B68DB6824
:101520000C333B621AE03B689B68002B02D104231A
:101530003B6213E03B689B68012B05D108233B62AB
:101540007B68FA691A6109E008233B627B68FA69E3
:101550005A6103E000233B6200E000BFBB69FF2B40
:1015600001D87B6801E07B6804337B61BB69FF2B9A
:1015700002D87B6A9B0002E07B6A083B9B003B61D0
:101580007B691A680F213B6901FA03F3DB431A40B8
:10159000396A3B6901FA03F31A437B691A603B68B5
:1015A0005B6803F08053002B00F0B1804D4B9B69CA
:1015B0004C4A43F0010393614A4B9B6903F00103DA
:1015C000BB60BB68484A7B6A9B08023352F82330F1
:1015D000FB607B6A03F003039B000F2202FA03F314
:1015E000DB43FA681340FB607B68404A934213D0A8
:1015F0007B683F4A93420DD07B683E4A934207D0B6
:101600007B683D4A934201D1032306E0042304E0B2
:10161000022302E0012300E000237A6A02F00302C1
:1016200092009340FA681343FB602F497B6A9B0842
:101630000233FA6841F823203B685B6803F48013A7
:10164000002B06D02D4B9A682C49BB6913438B6045
:1016500006E02A4B9A68BB69DB43284913408B603C
:101660003B685B6803F40013002B06D0234BDA6859
:101670002249BB691343CB6006E0204BDA68BB69A3
:10168000DB431E491340CB603B685B6803F40033C7
:10169000002B06D0194B5A681849BB6913434B609D
:1016A00006E0164B5A68BB69DB43144913404B6094
:1016B0003B685B6803F48033002B21D00F4B1A6822
:1016C0000E49BB6913430B6021E000BF00003210DC
:1016D0000000311000002210000021100000121044
:1016E00000001110001002400000014000080140FD
:1016F000000C0140001001400014014000040140B2
:101700000B4B1A68BB69DB43094913400B607B6ACA
:1017100001337B623B681A687B6A22FA03F3002B71
:101720007FF48EAE00BF00BF2C37BD4680BC704733
:101730000004014080B483B000AF78600B467B802A
:1017400013467B707B78002B03D07A887B681A6104
:1017500003E07B881A047B681A6100BF0C37BD4622
:1017600080BC704780B584B000AF78607B68002B88
:1017700001D101232BE17B6893F83D30DBB2002BD4
:1017800006D17B68002283F83C207868FFF746FB8F
:101790007B68242283F83D207B681B681A687B687D
:1017A0001B6822F001021A607B681B681A687B685C
:1017B0001B6842F400421A607B681B681A687B68E9
:1017C0001B6822F400421A6001F0CAFBF8607B68D3
:1017D0005B68814A934207D8FB68804A934294BF72
:1017E00001230023DBB206E0FB687D4A934294BFED
:1017F00001230023DBB2002B01D00123E7E0FB68CB
:10180000784AA2FB03239B0CBB607B681B685B6868
:1018100023F03F017B681B68BA680A435A607B6803
:101820001B681B6A23F03F017B685B686A4A93422E
:1018300002D8BB68013309E0BB684FF4967202FB23
:1018400003F3694AA2FB03239B0901337A681268F8
:101850000B4313627B681B68DB6923F44F4222F061
:10186000FF027B685B685C498B4219D8FB68591E94
:101870007B685B685B00B1FBF3F3591C40F6FC73BB
:101880000B40002B0AD0FB68591E7B685B685B002D
:10189000B1FBF3F30133C3F30B0351E004234FE037
:1018A0007B689B68002B11D1FB68581E7B685968C8
:1018B0000B465B000B44B0FBF3F30133C3F30B03A4
:1018C000002B0CBF01230023DBB212E0FB68581E83
:1018D0007B6859680B469B000B4499000B44B0FB96
:1018E000F3F30133C3F30B03002B0CBF01230023DD
:1018F000DBB2002B01D0012322E07B689B68002B28
:101900000ED1FB68581E7B6859680B465B000B4480
:10191000B0FBF3F30133C3F30B0343F400430FE0D5
:10192000FB68581E7B6859680B469B000B44990066
:101930000B44B0FBF3F30133C3F30B0343F4404315
:10194000796809681343CB617B681B681B6823F0C7
:10195000C0017B68DA697B681B6A1A437B681B6875
:101960000A431A607B681B689B6823F4034323F0D7
:10197000FF037A6811697A68D26811437A6812683D
:101980000B4393607B681B68DB6823F0FF017B6877
:101990005A697B689B691A437B681B680A43DA6053
:1019A0007B681B681A687B681B6842F001021A603A
:1019B0007B6800221A647B68202283F83D207B68C4
:1019C00000221A637B68002283F83E200023184619
:1019D0001037BD4680BD00BFA08601007F841E0079
:1019E000FF083D0083DE1B43D34D621080B588B0F5
:1019F00002AFF8607A601A460B467B8113463B8142
:101A0000FFF702FC7861FB6893F83D30DBB2202BD6
:101A100040F0E0807B690093192301227049F86847
:101A200000F09EFC0346002B01D00223D3E0FB68AC
:101A300093F83C30012B01D10223CCE0FB6801225A
:101A400083F83C20FB681B681B6803F00103012B33
:101A500007D0FB681B681A68FB681B6842F001022C
:101A60001A60FB681B681A68FB681B6822F4006236
:101A70001A60FB68212283F83D20FB68102283F85E
:101A80003E20FB6800221A64FB687A685A62FB6891
:101A90003A895A85FB685B8D9AB2FB681A85FB68A8
:101AA000504ADA6279897B693A6AF86800F008FB83
:101AB0000346002B01D001238DE000233B61FB682E
:101AC0001B685B693B61FB681B689B693B613B6909
:101AD00066E07A69396AF86800F05CFD0346002B1D
:101AE0000DD0FB681B6C042B07D1FB681B681A68C0
:101AF000FB681B6842F400721A6001236BE0FB680C
:101B00005B6A1A78FB681B681A61FB685B6A5A1C7F
:101B1000FB685A62FB685B8D9BB2013B9AB2FB6823
:101B20005A85FB681B8D013B9AB2FB681A85FB68DE
:101B30001B685B6903F00403042B1BD1FB681B8D3E
:101B4000002B17D0FB685B6A1A78FB681B681A6168
:101B5000FB685B6A5A1CFB685A62FB685B8D9BB230
:101B6000013B9AB2FB685A85FB681B8D013B9AB218
:101B7000FB681A857A69396AF86800F053FD0346F4
:101B8000002B0DD0FB681B6C042B07D1FB681B6876
:101B90001A68FB681B6842F400721A6001231AE09D
:101BA000FB681B8D002B94D1FB681B681A68FB68CF
:101BB0001B6842F400721A60FB68202283F83D2003
:101BC000FB68002283F83E20FB68002283F83C205B
:101BD000002300E0022318461837BD4680BD00BF31
:101BE000020010000000FFFF80B58CB002AFF8606B
:101BF0007A601A460B467B8113463B8100233B6289
:101C0000FFF702FB7862FB6893F83D30DBB2202BD4
:101C100040F04B827B6A0093192301227F49F868C8
:101C200000F09EFB0346002B01D002233EE2FB683E
:101C300093F83C30012B01D1022337E2FB680122EB
:101C400083F83C20FB681B681B6803F00103012B31
:101C500007D0FB681B681A68FB681B6842F001022A
:101C60001A60FB681B681A68FB681B6822F4006234
:101C70001A60FB68222283F83D20FB68102283F85B
:101C80003E20FB6800221A64FB687A685A62FB688F
:101C90003A895A85FB685B8D9AB2FB681A85FB68A6
:101CA0005F4ADA6279897B6A3A6BF86800F08AFAEF
:101CB0000346002B01D00123F8E1FB681B8D002BAC
:101CC00013D10023FB61FB681B685B69FB61FB6848
:101CD0001B689B69FB61FB69FB681B681A68FB68F2
:101CE0001B6842F400721A60CCE1FB681B8D012B6B
:101CF0001ED1FB681B681A68FB681B6822F48062AF
:101D00001A6072B600BF0023BB61FB681B685B6989
:101D1000BB61FB681B689B69BB61BB69FB681B6897
:101D20001A68FB681B6842F400721A6062B635E0FC
:101D3000FB681B8D022B1ED1FB681B681A68FB68B1
:101D40001B6842F400621A6072B600BF00237B6118
:101D5000FB681B685B697B61FB681B689B697B6137
:101D60007B69FB681B681A68FB681B6822F4806249
:101D70001A6062B612E0FB681B681A68FB681B6891
:101D800042F480621A6000233B61FB681B685B6958
:101D90003B61FB681B689B693B613B6972E1FB68C7
:101DA0001B8D032B00F21F81FB681B8D012B23D1A0
:101DB0007A6A396BF86800F07DFC0346002B01D08D
:101DC000012373E1FB681B681A69FB685B6AD2B286
:101DD0001A70FB685B6A5A1CFB685A62FB681B8DB1
:101DE000013B9AB2FB681A85FB685B8D9BB2013B95
:101DF0009AB2FB685A8545E1FB681B8D022B52D1D4
:101E00007B6A00933B6B00220649F86800F0A8FA51
:101E10000346002B08D0012348E100BF0200100058
:101E20000000FFFF0400010072B600BFFB681B68E2
:101E30001A68FB681B6842F400721A60FB681B6832
:101E40001A69FB685B6AD2B21A70FB685B6A5A1C3B
:101E5000FB685A62FB681B8D013B9AB2FB681A85CE
:101E6000FB685B8D9BB2013B9AB2FB685A8562B6F8
:101E700000BFFB681B681A69FB685B6AD2B21A7004
:101E8000FB685B6A5A1CFB685A62FB681B8D013B4E
:101E90009AB2FB681A85FB685B8D9BB2013B9AB2D4
:101EA000FB685A85EEE07B6A00933B6B0022814918
:101EB000F86800F055FA0346002B01D00123F5E045
:101EC000FB681B681A68FB681B6822F480621A6052
:101ED00072B600BFFB681B681A69FB685B6AD2B206
:101EE0001A70FB685B6A5A1CFB685A62FB681B8DA0
:101EF000013B9AB2FB681A85FB685B8D9BB2013B84
:101F00009AB2FB685A856C4B1B68DB086B4AA2FBD4
:101F100003231A0A13469B001344DA00D31A3B62C8
:101F20003B6A013B3B623B6A002B18D1FB680022F5
:101F30001A63FB68202283F83D20FB68002283F8A7
:101F40003E20FB681B6C43F02002FB681A6462B6FB
:101F500000BFFB68002283F83C200123A6E0FB6859
:101F60001B685B6903F00403042BD9D1FB681B6871
:101F70001A68FB681B6842F400721A60FB681B68F1
:101F80001A69FB685B6AD2B21A70FB685B6A5A1CFA
:101F9000FB685A62FB681B8D013B9AB2FB681A858D
:101FA000FB685B8D9BB2013B9AB2FB685A8562B6B7
:101FB00000BFFB681B681A69FB685B6AD2B21A70C3
:101FC000FB685B6A5A1CFB685A62FB681B8D013B0D
:101FD0009AB2FB681A85FB685B8D9BB2013B9AB293
:101FE000FB685A854EE07A6A396BF86800F062FB4C
:101FF0000346002B01D0012358E0FB681B681A69D7
:10200000FB685B6AD2B21A70FB685B6A5A1CFB6899
:102010005A62FB681B8D013B9AB2FB681A85FB680C
:102020005B8D9BB2013B9AB2FB685A85FB681B68CB
:102030005B6903F00403042B24D1FB681B8D032B85
:1020400007D1FB681B681A68FB681B6822F4806272
:102050001A60FB681B681A69FB685B6AD2B21A7067
:10206000FB685B6A5A1CFB685A62FB681B8D013B6C
:102070009AB2FB681A85FB685B8D9BB2013B9AB2F2
:10208000FB685A85FB681B8D002B7FF488AEFB68CC
:10209000202283F83D20FB68002283F83E20FB6865
:1020A000002283F83C20002300E002231846283752
:1020B000BD4680BD040001000000002089B5F81471
:1020C00080B588B002AFF8607A603B600B467B81D8
:1020D000FB68DB6A7B617B69082B06D07B69012B7F
:1020E00003D07B6913F5803F08D1FB681B681A6831
:1020F000FB681B6842F480721A600BE0FB681B6B84
:10210000122B07D1FB681B681A68FB681B6842F436
:1021100080721A603B6800937B6800224FF00111C7
:10212000F86800F01DF90346002B0DD0FB681B6812
:102130001B6803F48073B3F5807F03D1FB684FF411
:1021400000721A64032335E0FB681B69B3F5804F06
:1021500008D17B89DBB21A46FB681B6802F0FE02DD
:102160001A611BE07B89DB11DBB203F00603DBB2F3
:1021700063F00F03DAB2FB681B681A613B687A6888
:102180000E49F86800F066F90346002B01D00123E0
:1021900010E07B89DAB2FB681B681A613B687A68D9
:1021A0000749F86800F056F90346002B01D00123D7
:1021B00000E0002318461837BD4680BD0800010026
:1021C0000200010080B588B002AFF8607A603B6021
:1021D0000B467B81FB68DB6A7B61FB681B681A68C6
:1021E000FB681B6842F480621A607B69082B06D08A
:1021F0007B69012B03D07B6913F5803F08D1FB6815
:102200001B681A68FB681B6842F480721A600BE056
:10221000FB681B6B112B07D1FB681B681A68FB68F6
:102220001B6842F480721A603B6800937B6800224E
:102230004FF00111F86800F093F80346002B0DD021
:10224000FB681B681B6803F48073B3F5807F03D1C0
:10225000FB684FF400721A64032379E0FB681B6982
:10226000B3F5804F08D17B89DBB243F00103DAB2CA
:10227000FB681B681A615FE07B89DB11DBB203F04E
:102280000603DBB263F00F03DAB2FB681B681A6166
:102290003B687A683049F86800F0DCF80346002BA8
:1022A00001D0012354E07B89DAB2FB681B681A6114
:1022B0003B687A682949F86800F0CCF80346002B9F
:1022C00001D0012344E000233B61FB681B685B698C
:1022D0003B61FB681B689B693B613B69FB681B6852
:1022E0001A68FB681B6842F480721A603B680093AE
:1022F0007B6800224FF00111F86800F031F80346C6
:10230000002B0DD0FB681B681B6803F48073B3F5CA
:10231000807F03D1FB684FF400721A64032317E037
:102320007B89DB11DBB203F00603DBB263F00E0343
:10233000DAB2FB681B681A613B687A680749F8687B
:1023400000F088F80346002B01D0012300E00023B1
:1023500018461837BD4680BD080001000200010084
:1023600080B584B000AFF860B9603B601346FB7184
:1023700048E03B68B3F1FF3F44D0FEF745FF02461B
:10238000BB69D31A3A689A4202D33B68002B39D111
:10239000BB681B0CDBB2012B0DD1FB681B685B69B2
:1023A000DA43BB6813409BB2002B0CBF0123002310
:1023B000DBB21A460CE0FB681B689B69DA43BB681A
:1023C00013409BB2002B0CBF01230023DBB21A4643
:1023D000FB799A4216D1FB6800221A63FB6820221F
:1023E00083F83D20FB68002283F83E20FB681B6CCD
:1023F00043F02002FB681A64FB68002283F83C204B
:10240000012323E0BB681B0CDBB2012B0DD1FB6861
:102410001B685B69DA43BB6813409BB2002B0CBF9F
:1024200001230023DBB21A460CE0FB681B689B69A2
:10243000DA43BB6813409BB2002B0CBF012300237F
:10244000DBB21A46FB799A4293D000231846103724
:10245000BD4680BD80B584B000AFF860B9607A60D9
:102460003B6071E0FB681B685B6903F48063B3F554
:10247000806F23D1FB681B681A68FB681B6842F4F5
:1024800000721A60FB681B686FF480625A61FB6817
:1024900000221A63FB68202283F83D20FB6800229B
:1024A00083F83E20FB681B6C43F00402FB681A644F
:1024B000FB68002283F83C20012367E07B68B3F1CE
:1024C000FF3F41D0FEF7A0FE02463B68D31A7A6870
:1024D0009A4202D37B68002B36D1BB681B0CDBB25F
:1024E000012B0CD1FB681B685B69DA43BB681340A6
:1024F0009BB2002B14BF01230023DBB20BE0FB686F
:102500001B689B69DA43BB6813409BB2002B14BF66
:1025100001230023DBB2002B16D0FB6800221A63D4
:10252000FB68202283F83D20FB68002283F83E20D0
:10253000FB681B6C43F02002FB681A64FB680022F6
:1025400083F83C20012321E0BB681B0CDBB2012B8C
:102550000CD1FB681B685B69DA43BB6813409BB214
:10256000002B14BF01230023DBB20BE0FB681B68C8
:102570009B69DA43BB6813409BB2002B14BF012355
:102580000023DBB2002B7FF46DAF00231846103719
:10259000BD4680BD80B584B000AFF860B9607A6098
:1025A00034E0F86800F0E3F80346002B01D0012383
:1025B00034E0BB68B3F1FF3F28D0FEF725FE0246AA
:1025C0007B68D31ABA689A4202D3BB68002B1DD12C
:1025D000FB681B685B6903F08003802B16D0FB68E7
:1025E00000221A63FB68202283F83D20FB6800224A
:1025F00083F83E20FB681B6C43F02002FB681A64E2
:10260000FB68002283F83C20012307E0FB681B687D
:102610005B6903F08003802BC3D100231846103779
:10262000BD4680BD80B584B000AFF860B9607A6007
:1026300034E0F86800F09BF80346002B01D001233A
:1026400034E0BB68B3F1FF3F28D0FEF7DDFD024662
:102650007B68D31ABA689A4202D3BB68002B1DD19B
:10266000FB681B685B6903F00403042B16D0FB684E
:1026700000221A63FB68202283F83D20FB680022B9
:1026800083F83E20FB681B6C43F02002FB681A6451
:10269000FB68002283F83C20012307E0FB681B68ED
:1026A0005B6903F00403042BC3D1002318461037E1
:1026B000BD4680BD80B584B000AFF860B9607A6077
:1026C00049E0FB681B685B6903F01003102B19D10C
:1026D000FB681B686FF010025A61FB6800221A63E6
:1026E000FB68202283F83D20FB68002283F83E200F
:1026F000FB681A6CFB681A64FB68002283F83C20B4
:10270000012330E0FEF780FD02467B68D31ABA68E9
:102710009A4202D3BB68002B1DD1FB681B685B6922
:1027200003F04003402B16D0FB6800221A63FB68BD
:10273000202283F83D20FB68002283F83E20FB68BE
:102740001B6C43F02002FB681A64FB68002283F8CC
:102750003C20012307E0FB681B685B6903F0400332
:10276000402BAED1002318461037BD4680BD80B443
:1027700083B000AF78607B681B685B6903F480639B
:10278000B3F5806F1BD17B681B686FF480625A6160
:102790007B6800221A637B68202283F83D207B68D7
:1027A000002283F83E207B681B6C43F004027B68A8
:1027B0001A647B68002283F83C20012300E0002398
:1027C00018460C37BD4680BC7047000080B586B007
:1027D00000AF78607B68002B01D1012372E27B6837
:1027E0001B6803F00103002B00F08780924B5B68AD
:1027F00003F00C03042B0CD08F4B5B6803F00C032D
:10280000082B12D18C4B5B6803F48033B3F5803F07
:102810000BD1894B1B6803F40033002B6CD07B6811
:102820005B68002B68D101234CE27B685B68B3F5E1
:10283000803F06D1804B1B687F4A43F4803313608E
:102840002EE07B685B68002B0CD17B4B1B687A4ABF
:1028500023F480331360784B1B68774A23F480237A
:1028600013601DE07B685B68B3F5A02F0CD1724B41
:102870001B68714A43F4802313606F4B1B686E4AD8
:1028800043F4803313600BE06B4B1B686A4A23F4FC
:1028900080331360684B1B68674A23F480231360FE
:1028A0007B685B68002B13D0FEF7AEFC386108E054
:1028B000FEF7AAFC02463B69D31A642B01D9032315
:1028C00000E25D4B1B6803F40033002BF0D014E0F2
:1028D000FEF79AFC386108E0FEF796FC02463B6979
:1028E000D31A642B01D90323ECE1534B1B6803F487
:1028F0000033002BF0D100E000BF7B681B6803F0C1
:102900000203002B63D04C4B5B6803F00C03002BDD
:102910000BD0494B5B6803F00C03082B1CD1464BD2
:102920005B6803F48033002B16D1434B1B6803F024
:102930000203002B05D07B681B69012B01D001230A
:10294000C0E13D4B1B6823F0F8027B685B69DB004C
:10295000394913430B603AE07B681B69002B20D098
:10296000364B01221A60FEF74FFC386108E0FEF793
:102970004BFC02463B69D31A022B01D90323A1E188
:102980002D4B1B6803F00203002BF0D02A4B1B6871
:1029900023F0F8027B685B69DB00274913430B6077
:1029A00015E0264B00221A60FEF72EFC386108E085
:1029B000FEF72AFC02463B69D31A022B01D90323F6
:1029C00080E11D4B1B6803F00203002BF0D17B68F4
:1029D0001B6803F00803002B3AD07B689B69002B2F
:1029E00019D0174B01221A60FEF70EFC386108E07F
:1029F000FEF70AFC02463B69D31A022B01D90323D6
:102A000060E10D4B5B6A03F00203002BF0D0012064
:102A100000F0CEFA1CE00A4B00221A60FEF7F4FB2D
:102A200038610FE0FEF7F0FB02463B69D31A022B38
:102A300008D9032346E100BF0010024000004242D3
:102A400080044242924B5B6A03F00203002BE9D1FF
:102A50007B681B6803F00403002B00F0A6800023B2
:102A6000FB758B4BDB6903F08053002B0DD1884B3A
:102A7000DB69874A43F08053D361854BDB6903F000
:102A80008053BB60BB680123FB75824B1B6803F45A
:102A90008073002B18D17F4B1B687E4A43F48073F0
:102AA0001360FEF7B1FB386108E0FEF7ADFB0246AC
:102AB0003B69D31A642B01D9032303E1754B1B68CF
:102AC00003F48073002BF0D07B68DB68012B06D108
:102AD0006F4B1B6A6E4A43F0010313622DE07B6863
:102AE000DB68002B0CD16A4B1B6A694A23F0010397
:102AF0001362674B1B6A664A23F0040313621CE0EF
:102B00007B68DB68052B0CD1614B1B6A604A43F084
:102B1000040313625E4B1B6A5D4A43F001031362B8
:102B20000BE05B4B1B6A5A4A23F001031362584BBC
:102B30001B6A574A23F0040313627B68DB68002B8F
:102B400015D0FEF761FB38610AE0FEF75DFB024637
:102B50003B69D31A41F28832934201D90323B1E091
:102B60004B4B1B6A03F00203002BEED014E0FEF780
:102B70004BFB38610AE0FEF747FB02463B69D31A7C
:102B800041F28832934201D903239BE0404B1B6AF8
:102B900003F00203002BEED1FB7D012B05D13C4B52
:102BA000DB693B4A23F08053D3617B68DB69002BF0
:102BB00000F08780364B5B6803F00C03082B61D074
:102BC0007B68DB69022B46D1334B00221A60FEF78B
:102BD0001BFB386108E0FEF717FB02463B69D31A7E
:102BE000022B01D903236DE0294B1B6803F000730E
:102BF000002BF0D17B681B6AB3F5803F08D1244BD2
:102C00005B6823F400327B689B68214913434B6067
:102C10001F4B5B6823F474127B68196A7B685B6ADC
:102C20000B431B4913434B601B4B01221A60FEF7F9
:102C3000EBFA386108E0FEF7E7FA02463B69D31A7F
:102C4000022B01D903233DE0114B1B6803F00073F5
:102C5000002BF0D035E0104B00221A60FEF7D4FABA
:102C6000386108E0FEF7D0FA02463B69D31A022B1E
:102C700001D9032326E0064B1B6803F00073002BE9
:102C8000F0D11EE07B68DB69012B07D1012319E03D
:102C90000010024000700040600042420B4B5B6835
:102CA000FB60FB6803F480327B681B6A9A4206D1A2
:102CB000FB6803F470127B685B6A9A4201D00123BF
:102CC00000E0002318461837BD4680BD00100240C2
:102CD00080B584B000AF786039607B68002B01D18B
:102CE0000123D0E06A4B1B6803F007033A689A425D
:102CF00010D9674B1B6823F0070265493B681343F3
:102D00000B60634B1B6803F007033A689A4201D0DB
:102D10000123B8E07B681B6803F00203002B20D07E
:102D20007B681B6803F00403002B05D0594B5B68DC
:102D3000584A43F4E06353607B681B6803F0080360
:102D4000002B05D0534B5B68524A43F460535360E9
:102D5000504B5B6823F0F0027B689B684D4913433E
:102D60004B607B681B6803F00103002B40D07B683D
:102D70005B68012B07D1474B1B6803F40033002B22
:102D800015D101237FE07B685B68022B07D1414BA3
:102D90001B6803F00073002B09D1012373E03D4B46
:102DA0001B6803F00203002B01D101236BE0394BB8
:102DB0005B6823F003027B685B68364913434B6012
:102DC000FEF722FAF8600AE0FEF71EFA0246FB68F8
:102DD000D31A41F28832934201D9032353E02D4B99
:102DE0005B6803F00C027B685B689B009A42EBD146
:102DF000274B1B6803F007033A689A4210D2244B12
:102E00001B6823F0070222493B6813430B60204BE9
:102E10001B6803F007033A689A4201D0012332E0AD
:102E20007B681B6803F00403002B08D0194B5B6818
:102E300023F4E0627B68DB68164913434B607B68D0
:102E40001B6803F00803002B09D0124B5B6823F4C6
:102E500060527B681B69DB000E4913434B6000F036
:102E600021F802460B4B5B681B0903F00F030A496C
:102E7000CB5C22FA03F3094A1360094B1B6818461E
:102E8000FEF780F9002318461037BD4680BD00BF0D
:102E9000002002400010024028B700080000002077
:102EA0000400002080B487B000AF0023FB60002343
:102EB000BB6000237B6100237B6000233B611E4BD2
:102EC0005B68FB60FB6803F00C03042B02D0082B4B
:102ED00003D027E0194B3B6127E0FB689B0C03F014
:102EE0000F03174AD35C7B60FB6803F48033002B2D
:102EF00010D0114B5B685B0C03F00103114AD35CEB
:102F0000BB607B680D4A03FB02F2BB68B2FBF3F3C4
:102F10007B6104E07B680C4A02FB03F37B617B6905
:102F20003B6102E0054B3B6100BF3B6918461C3723
:102F3000BD4680BC704700BF0010024000127A00FE
:102F400040B7000850B7000800093D0080B400AF4A
:102F5000024B1B681846BD4680BC7047000000202D
:102F600080B500AFFFF7F2FF0246054B5B681B0A16
:102F700003F007030349CB5C22FA03F3184680BD34
:102F80000010024038B7000880B500AFFFF7DEFF41
:102F90000246054B5B68DB0A03F007030349CB5C81
:102FA00022FA03F3184680BD0010024038B700082B
:102FB00080B485B000AF78600A4B1B680A4AA2FB58
:102FC00003235B0A7A6802FB03F3FB6000BFFB6824
:102FD0005A1EFA60002BF9D100BF00BF1437BD465E
:102FE00080BC704700000020D34D621080B582B0D5
:102FF00000AF78607B68002B01D1012342E07B6841
:1030000093F84130DBB2002B06D17B68002283F8B5
:1030100040207868FDF740FF7B68242283F8412038
:103020007B681B68DA687B681B6822F40052DA60F0
:10303000786800F01DF97B681B681A697B681B685B
:1030400022F490421A617B681B685A697B681B688E
:1030500022F02A025A617B681B68DA687B681B6869
:1030600042F40052DA607B6800225A647B682022B6
:1030700083F841207B68202283F842207B6800226D
:103080005A63002318460837BD4680BD80B58AB014
:1030900002AFF860B9603B601346FB8000237B61A0
:1030A000FB6893F84130DBB2202B6DD1BB68002B5D
:1030B00002D0FB88002B01D1012366E0FB680022CF
:1030C0005A64FB68212283F84120FEF79DF878615D
:1030D000FB68FA889A84FB68FA88DA84FB689B6844
:1030E000B3F5805F08D1FB681B69002B04D1002376
:1030F000FB61BB68BB6103E0BB68FB610023BB6194
:103100002AE03B6800937B6900228021F86800F088
:1031100040F80346002B01D0032336E0FB69002B67
:103120000BD1BB691B881A46FB681B68C2F30802F7
:103130005A60BB690233BB6107E0FB691A78FB6820
:103140001B685A60FB690133FB61FB68DB8C9BB237
:10315000013B9AB2FB68DA84FB68DB8C9BB2002BE4
:10316000CFD13B6800937B6900224021F86800F0D2
:1031700010F80346002B01D0032306E0FB68202251
:1031800083F84120002300E0022318462037BD4683
:1031900080BD80B590B000AFF860B9603B60134669
:1031A000FB7150E0BB6CB3F1FF3F4CD0BB6C002B0C
:1031B00007D0FEF729F802463B68D31ABA6C9A4248
:1031C00041D2FB681B680C33BB62BB6A53E8003F0B
:1031D0007B627B6A23F4D073FB63FB681B680C3350
:1031E000FA6B7A633B63396B7A6B41E80023FB62CD
:1031F000FB6A002BE5D1FB681B6814337B617B699C
:1032000053E8003F3B613B6923F00103BB63FB686C
:103210001B681433BA6B3A62FB61F9693A6A41E898
:103220000023BB61BB69002BE5D1FB68202283F83A
:103230004120FB68202283F84220FB68002283F8AB
:10324000402003230FE0FB681B681A68BB6813402B
:10325000BA689A420CBF01230023DBB21A46FB79FD
:103260009A429FD0002318464037BD4680BD0000DB
:1032700080B584B000AF78607B681B681B6923F45D
:1032800040517B68DA687B681B680A431A617B6877
:103290009A687B681B691A437B685B691343BB6050
:1032A0007B681B68DB6823F4B05323F00C037A6857
:1032B0001268B9680B43D3607B681B685B6923F4B1
:1032C00040717B689A697B681B680A435A617B6816
:1032D0001B682C4A934203D1FFF756FEF86002E0C8
:1032E000FFF73EFEF860FA6813469B0013449A000D
:1032F0001A447B685B689B00B2FBF3F3224AA2FB93
:1033000003235B091901FA6813469B0013449A00D2
:103310001A447B685B689B00B2FBF3F21A4BA3FB79
:1033200002035B09642000FB03F3D31A1B01323351
:10333000154AA2FB03235B0903F0F0031944FA6862
:1033400013469B0013449A001A447B685B689B00F9
:10335000B2FBF3F20C4BA3FB02035B09642000FBFE
:1033600003F3D31A1B013233074AA2FB03235B0981
:1033700003F00F027B681B680A449A6000BF103795
:10338000BD4680BD003801401F85EB5180B584B03B
:1033900000AF78600023FB7397F90F30002B05D145
:1033A0000121786801F056F80346FB7397F90F3056
:1033B000002B03D17B68012283F878230023BB73A1
:1033C00012E097F90F30002B12D1BB7B9BB2012288
:1033D0001946786800F0CDFB03461A46FB7B134381
:1033E000FB73BB7B0133BB73BB7B012BE9D900E0D3
:1033F00000BF97F90F3018461037BD4680BD80B525
:1034000084B000AF78600023FB737B68032283F8ED
:1034100078232023BB737B68BA7B9A700821786875
:1034200000F0F5F80346FB737B68082283F87C23E1
:1034300097F90F3018461037BD4680BD80B584B06F
:1034400000AF78600023FB734FF4FA71786805F0E1
:103450003BF80346FB7397F90F3018461037BD460B
:1034600080BD000080B487B000AF03463A60FB71B6
:103470000B46BB710023FB752A4A07F11003126843
:10348000114619800233120C1A70274A07F10C03F7
:103490001268114619800233120C1A70234A07F180
:1034A00008031268114619800233120C1A703B6827
:1034B00001221A70BB79012B02D0022B03D005E048
:1034C0000023BB7504E00123BB7501E00223BB753B
:1034D000FB79082B15D0082B1BDC032B09D0042B00
:1034E00017D1BB7D18333B4413F8082C3B681A7086
:1034F00011E0BB7D18333B4413F80C2C3B681A7069
:1035000009E0BB7D18333B4413F8102C3B681A705C
:1035100001E0F823FB7597F9173018461C37BD46B4
:1035200080BC704718B700081CB7000820B7000817
:10353000B0B58EB004AFF8607B600B46FB721346EB
:10354000BB72002387F8273000237B840023FB61B4
:103550000023BB6100237B61FB7A032B02D0FB7A43
:10356000082B03D1402387F8263002E0202387F878
:10357000263007F12502B97AFB7A1846FFF772FF69
:10358000034687F8273097F92730002B12D197F898
:10359000251007F11C0007F1220207F11403019323
:1035A00007F1180300930346F86801F00FFA034689
:1035B00087F8273097F92730002B12D197F825008C
:1035C0007C8CFD69BB697A697968029101920093EC
:1035D0002B4622460146F86801F0A2FA034687F816
:1035E000273097F92730002B03D1FB6897F8262066
:1035F0009A7097F92730002B03D1FB68FA7A83F889
:103600007C2397F9273018462837BD46B0BD80B5D2
:1036100084B000AF78600B46FB700023FB7303237C
:10362000BB73786803F092FD0346FB73BA7BF978AD
:103630004FF47A737868FFF77BFF0346FB7397F9C3
:103640000F30002B17D1FB78042B05D0FB78032B10
:1036500002D0FB78082B07D14AF22801786800F0E5
:1036600091F80346FB7306E048F23521786800F0D4
:1036700089F80346FB7397F90F30002B06D14FF4FE
:103680007A71786800F008FA0346FB7397F90F30F7
:1036900018461037BD4680BD80B588B000AF786051
:1036A0000B46FB700023FB7700237B6100233B610B
:1036B0000023FB607B6893F87C33BB77FB78012B9E
:1036C00008D0FB78022B05D0FB78032B02D06FF0DB
:1036D000030352E097F91F30002B07D107F10803CD
:1036E0001946786801F01CF90346FB777B685B6933
:1036F000BB6197F91F30002B0AD107F1140307F1C2
:10370000100207F10C01786801F046F80346FB77D8
:1037100097F91F30002B07D1FA78B97FBB69786819
:10372000FFF706FF0346FB7797F91F30002B03D105
:103730007B68FA7883F87D2397F91F30002B0ED130
:10374000F9683A697B69786800F0EEFF0346FB7719
:1037500097F91F30002B02D17A697B681A6197F9BB
:103760001F30002B07D107F108031946786801F0D4
:10377000B4F80346FB7797F91F3018462037BD464B
:1037800080BD000080B58CB000AF78603960002348
:1037900087F82F300023BB7600237B7600237B61E4
:1037A00000233B610023FB60644BFB613B68644A80
:1037B000934202D9FC2387F82F3097F92F30002B42
:1037C00009D107F11A031A460521786800F08AFA30
:1037D000034687F82F3097F92F30002B09D107F1D6
:1037E00019031A460621786800F07CFA034687F828
:1037F0002F3097F92F30002B0BD107F1140307F16D
:10380000100207F10C01786800F0C6FF034687F844
:103810002F3097F92F30002B40F081807B6893F890
:103820007C33FB760023BB6201237B62FB7E082B8B
:1038300026D0082B43DC032B0FD0042B3FD1BB7EBB
:10384000012B02D07B7E012B03D141F28833BB6276
:1038500038E04FF47A73BB6234E0FB695B00FB61D4
:10386000BB7E012B02D07B7E012B03D146F2E87395
:10387000BB6202E045F26043BB6202237B6221E04F
:10388000FB695B00FB61F5233B6207F108031A4605
:1038900048F23601786801F0EFFFBB68002B07DDC6
:1038A000BB68F52202FB03F31A463B6A13443B62F2
:1038B0003B6A03F6DC53BB6202237B6202E0F8231F
:1038C00087F82F303A68BB6A9A4203D8FC2387F8FE
:1038D0002F3003E03A68BB6AD31A7B6197F92F3027
:1038E000002B1CD17B69FA699A4203D2FC2387F82A
:1038F0002F300DE07A697B6AB2FBF3F37B61F968E4
:103900003A697B69786800F00FFF034687F82F302B
:1039100097F92F30002B02D17A697B681A6197F9E9
:103920002F30002B03D17B683A68C3F8802397F9C6
:103930002F3018463037BD4680BD00BF7064080088
:103940008096980080B58CB000AF78603960002315
:1039500087F82F300023FB760023BB7600237B61A2
:1039600000233B610023BB620023FB603B68002215
:103970001A6097F92F30002B09D107F11B031A4663
:103980000521786800F0AEF9034687F82F3097F9E3
:103990002F30002B09D107F11A031A460621786847
:1039A00000F0A0F9034687F82F3097F92F30002B4D
:1039B0000BD107F1100307F1140207F10C0178682D
:1039C00000F0EAFE034687F82F3097F92F30002BDE
:1039D00055D17B6893F87C3387F8233097F82330F0
:1039E000082B2AD0082B47DC032B12D0042B43D101
:1039F000FB7E012B02D0BB7E012B05D13B6903F579
:103A00009C530833BB623AE03B6903F57A73BB62AF
:103A100035E0FB7E012B02D0BB7E012B06D13B693A
:103A200003F54F5334335B00BB6228E03B6903F579
:103A3000285330335B00BB6221E0F5237B6207F142
:103A400008031A4648F23601786801F015FFBB6892
:103A5000002B07DDBB68F52202FB03F31A467B6AE5
:103A600013447B627B6A03F6DC53FB613B695B00BA
:103A7000FA691344BB6202E0F82387F82F3097F904
:103A80002F30002B02D13B68BA6A1A6097F92F30A9
:103A900018463037BD4680BD80B584B000AF786031
:103AA00039600023FB733B68BB60BB689B01094A1C
:103AB000A2FB03239B09BA681344BB60B96878680A
:103AC00000F0E5FD0346FB7397F90F3018461037F9
:103AD000BD4680BDD34D621080B584B000AF786024
:103AE00039600023FB7307F108031946786800F07A
:103AF000F6FD0346FB73BA68BB689B010749A1FB4F
:103B000003139B09D31ABB60BA683B681A6097F924
:103B10000F3018461037BD4680BD00BFD34D621030
:103B200080B586B000AFF8600B467A607B810023D9
:103B3000FB757B89002B02D0012B09D011E07B683B
:103B40009B0BBB82BB8A1946F86801F074F90AE046
:103B50007B685B0ABB82BB8A1946F86801F095F95D
:103B600001E0FC23FB7597F9173018461837BD465E
:103B700080BD80B584B000AF78600B467B80134673
:103B80007B700023FB730023BB607B88012B02D971
:103B9000FC23FB7314E07B78002B02D10023BB6075
:103BA00006E07B887A68E0339B0013449B68BB6027
:103BB0007B88BA6819467868FFF7B2FF0346FB7343
:103BC00097F90F30002B0CD17B78002B14BF012309
:103BD0000023DAB27B8811467A6813440A4683F8D8
:103BE000842397F90F3018461037BD4680BD80B446
:103BF00087B000AFF8600B467A607B810023FB75CD
:103C00007B89012B05D9FC23FB757B6800221A7088
:103C100008E07B89FA68134493F88433BB757B68AA
:103C2000BA7D1A7097F9173018461C37BD4680BC0C
:103C3000704780B588B000AFF8600B467A607B8132
:103C40000023FB770023BB617B89002B02D0012B73
:103C50000CD017E007F114031946F86801F0D6F804
:103C60000346FB77BB8A9B03BB610DE007F116039C
:103C70001946F86801F0F4F80346FB77FB8A5B020B
:103C8000BB6101E0FC23FB7797F91F30002B23D1A8
:103C9000BB69002B10D17B89FA68E0339B00134489
:103CA0009B68BB617B68BA691A607B89FA681344B8
:103CB000002283F884230FE07B68BA691A607B894D
:103CC000FA68E0339B001344BA699A607B89FA680A
:103CD0001344012283F8842397F91F3018462037B4
:103CE000BD4680BD80B586B000AFF8600B467A60F7
:103CF000FB720023FB75FB7A7A681946F86800F0BE
:103D0000B6FD0346FB7597F9173018461837BD46C0
:103D100080BD000080B586B000AF78600023FB75E1
:103D20007B689B78BB75BB7D402B02D0786800F028
:103D300069FA7B6893F878337B757B7D632B12DCA3
:103D4000622B0DDA052B0EDC042B09DA022B02DCC8
:103D5000002B05DA07E0032B05D10023FB7504E0F7
:103D6000F223FB7501E0FD23FB7597F91730002B5B
:103D70001FD1BB7D402B1CD107F110031946786879
:103D8000FFF7E0FD03463B753B69174AA2FB03239F
:103D90009B093B6107F10C0319467868FFF79CFE0D
:103DA00003463B753B691A1DFB689A4201D9FC2307
:103DB000FB7597F91730002B07D1BB7D06221946FA
:103DC000786801F097F80346FB7597F91730002BD8
:103DD00003D17B68042283F8782397F917301846BB
:103DE0001837BD4680BD00BFD34D621080B584B08A
:103DF00000AF78600023FB737B689B78BB73BB7B51
:103E00001946786801F004FC0346FB7397F90F30FC
:103E100018461037BD4680BD80B584B000AF7860CD
:103E20000023FB734FF4FA61786804F079FB0346D2
:103E3000FB7397F90F3018461037BD4680BD000060
:103E400080B48DB000AF03463A60FB710B46BB7186
:103E50004FF49673BB841E237B84324BFB61324B41
:103E6000BB6141F69A137B61FB79002B03D10023E0
:103E700087F827304FE0BB79072B03D1322387F82F
:103E8000273048E03B68B3F93C30B7F924209A4228
:103E900003DD7B8C1B04FB6207E03B68B3F93C301D
:103EA0001A467B6902FB03F3FB62FB6A002B20D0FE
:103EB0003B681B8F1A46BB6902FB03F33B61FB6A3D
:103EC0005B083A6913443B613A69FB6AB2FBF3F35E
:103ED0003B613B691B043B613A69FB699A4204D828
:103EE000FA693B69D31ABB6206E04FF44813BB6220
:103EF00002E04FF4C803BB62BB6A1B0CFB73FB7B85
:103F0000322B05D9FB7B642B28BF6423DBB200E096
:103F1000322387F8273097F8273018463437BD46C4
:103F200080BC704733B37500CDCC300080B485B011
:103F300000AF0346FB71FB79043B0F2B3DD801A278
:103F400052F823F0973F0008913F00089D3F00087A
:103F5000A33F0008AF3F0008B53F0008BB3F000883
:103F6000BB3F0008A93F0008BB3F0008BB3F00085B
:103F7000BB3F0008BB3F0008BB3F0008853F00086F
:103F80008B3F00080A23FB7319E00623FB7316E03E
:103F90000423FB7313E00223FB7310E00123FB7384
:103FA0000DE00723FB730AE00923FB7307E00323FB
:103FB000FB7304E00023FB7301E0FF23FB73FB7B37
:103FC00018461437BD4680BC704700BF80B58CB022
:103FD00000AFF8607B600B46FB721346BB72002398
:103FE00087F82F307B685A68BB6B1A607B6893F840
:103FF0003E3003F01F0387F82E3097F82E10FB7A1F
:104000007A681846FFF71CFF03461A46BB6B5A71C5
:104010007B689B8D5B02BB62BB6BBA6A9A607B68F4
:104020001B8E5B027B62BB6B7A6ADA607B681A8AE2
:10403000BB6B1A827B681B8F5B023B62BB6B3A6A6D
:104040005A617B68B3F93C20BB6B1A83BB6B0022BF
:104050009A76BB7A112B09D0112B0FDC032B02DCD3
:10406000002B03DC0AE00D2B04D007E0BB6B05221C
:10407000DA7606E0BB6B0D22DA7602E0BB6B00223B
:10408000DA76BB6BDB7E002B08D197F82E30184612
:10409000FFF74CFF03461A46BB6BDA767B681B8F33
:1040A0005B023B62FB683A6AC3F890237B689B8D96
:1040B0005B023B62FB683A6AC3F8942307F114037E
:1040C0001A460021F868FFF7B4FD97F82E30062B4A
:1040D0000CBF01230023DBB2FB7707F119031A465B
:1040E0000021F868FFF783FD7B7E012B04D1FB7F65
:1040F000012B01D1012300E00023BB77FB68BA7FCD
:1041000083F8862307F114031A460121F868FFF7A4
:1041100090FD97F82E30042B0CBF01230023DBB257
:104120007B7707F119031A460121F868FFF75FFD55
:104130007B7E012B04D17B7F012B01D1012300E089
:104140000023BB77FB68BA7F83F88723BB6B1B8B8D
:104150007B83BB6BDB7E002B10D1B7F91A30002BB1
:104160000CDAB7F91A20084B5B689A4203DABB6B8A
:104170000E22DA7602E0BB6B00221A8397F92F3009
:1041800018463037BD4680BD0C00002080B5A8B071
:1041900002AF78603960002387F8973007F1080391
:1041A000C7F890301C22FF21386805F092F9D7F843
:1041B00090200221786801F0BBF9034687F8973018
:1041C00097F99730002B17D1D7F890309A783B6841
:1041D0001A71D7F890300433C7F88C30D7F8903084
:1041E000DA783B680093D7F88C3001217868FFF7C4
:1041F000EDFE034687F8973097F9973018469837C1
:10420000BD4680BD80B5C6B000AF07F58C73A3F581
:104210008A731860002387F817310023C7F80C3120
:1042200097F91731002B0BD107F58C73A3F58A731F
:1042300000228521186804F04DFA034687F81731EB
:1042400097F91731002B06D107F58C73A3F58A7304
:10425000186802F046FD7E4BDB6AC7F80C31D7F8D0
:104260000C31032B1AD801A252F823F07D4200082A
:10427000854200088D420008954200080023C7F8D7
:1042800010310EE01023C7F810310AE02023C7F8E0
:10429000103106E04023C7F8103102E00023C7F8D0
:1042A000103197F91731002B34D107F58C73A3F532
:1042B000867329221A7007F58C73A3F58673C922B9
:1042C0005A7007F58C73A3F586730E229A7007F562
:1042D0008C73A3F586734022DA7007F58C73A3F50F
:1042E000867328221A71D7F81031DAB207F58C7369
:1042F000A3F586735A7107F10C0207F58C73A3F5C9
:104300008A70062340F27641006804F077F903468C
:1043100087F8173197F91731002B32D107F58C73D5
:10432000A3F5867303221A7007F58C73A3F58673C1
:104330006D225A7007F58C73A3F5867303229A7069
:1043400007F58C73A3F586736F22DA7007F58C730B
:10435000A3F5867307221A7107F58C73A3F586738C
:1043600029225A7107F10C0207F58C73A3F58A70A4
:10437000062340F29641006804F040F9034687F8AE
:10438000173197F91731002B1AD107F58C73A3F564
:10439000867300221A7007F58C73A3F586730722C3
:1043A0005A7007F10C0207F58C73A3F58A7002238B
:1043B00040F27241006804F021F9034687F8173192
:1043C00097F91731002B1AD107F58C73A3F5867373
:1043D00000221A7007F58C73A3F5867307225A70B2
:1043E00007F10C0207F58C73A3F58A70022340F2E3
:1043F0007441006804F002F9034687F8173197F911
:104400001731002B0CD107F58C73A3F58A730122A9
:104410004FF48E61186804F05DF9034687F8173190
:1044200097F91731002B0BD107F58C73A3F58A731D
:1044300001228521186804F04DF9034687F81731E9
:1044400097F91731184607F58C77BD4680BD00BF38
:104450000C000020B0B588B004AF78600B46FB704C
:104460000023FB737B68BB606221786802F0FDF873
:10447000BB6800221A70BB6801225A70BB68002218
:104480009A70BB680122DA70BB6801221A71BB689E
:104490004FF47A729A60BB684FF4FA62DA60BB68D4
:1044A00043F2C8221A61BB6864225A61BB684FF4A8
:1044B00020621A83BB68002283F82120BB6840F287
:1044C000DB72A3F89C20786802F0B4F8FB78002B2C
:1044D00008D097F90F30002B04D1786800F057F816
:1044E0000346FB73BB6803F58873184601F0E8FBCD
:1044F0000346FB73BB6803F59073184601F003FC99
:104500000346FB73BB6803F14202BB6803F5967375
:104510001946104601F017FC0346FB73BB6803F510
:10452000A273184601F071FC0346FB73BB68A43309
:10453000184601F090FC0346FB732021786800F0D8
:10454000B9FC0346FB7397F90F30002B16D1BB68FB
:104550005878BB681C8BBB689D68BB68DB68BA6811
:104560001269B96849690291019200932B4622466B
:104570000146786800F0D4FA0346FB73786802F0CD
:10458000E5FD97F90F3018461037BD46B0BD80B530
:1045900084B000AF78600023FB737B68BB6097F941
:1045A0000F30002B08D1BB6803F5AC73194678684F
:1045B00002F063FF0346FB7397F90F30002B07D11E
:1045C000BB6842331946786803F095F80346FB73DD
:1045D00097F90F30002B15D1BB6803F5FD73194611
:1045E000786803F046FF0346FB7397F90F30002B02
:1045F00008D1BB6803F5FD72BB68F033194610465D
:1046000002F093F997F90F30002B09D1BB6803F53D
:104610002D731A46DE21786804F0BAF80346FB735E
:10462000BB68B3F85E31B3F5805F04D2BB684BF66C
:10463000CC42A3F85E2197F90F30002B07D1BB685D
:104640009E331946786800F08DF90346FB73BB680A
:1046500093F8A230002B14D1BB6893F8A330002B41
:104660000FD1BB6893F89E301B01DAB2BB6883F8A8
:10467000A220BB6893F89F301B01DAB2BB6883F8B5
:10468000A32097F90F3018461037BD4680BD80B47F
:1046900085B000AF786039600023FB737B68BB6036
:1046A000BB68B3F8B432002B01D1F123FB7397F947
:1046B0000F30002B0CD1BB683A685A61BB68B3F865
:1046C000B4321A463B6803FB02F2BB68C3F8AC2164
:1046D00097F90F3018461437BD4680BC704780B438
:1046E00085B000AF786039600023FB737B68BB60E6
:1046F000BB68B3F8B432002B01D1F123FB7397F9F7
:104700000F30002B09D1BB68D3F8AC31BA68B2F8CE
:10471000B422B3FBF2F23B681A6097F90F301846E7
:104720001437BD4680BC704780B588B002AFF860D2
:10473000B9607A603B600023FB75FB683B613B69B5
:10474000B3F85E31002B01D1F123FB7597F91730D7
:10475000002B1BD13B69BA689A603B697A68DA60C2
:104760003B693A681A613B69B3F85E113B6903F52E
:10477000C2733A6902F5CE72019200930B463A6811
:104780007968B86802F017FC0346FB7597F9173093
:1047900018461837BD4680BD80B588B000AFF860B8
:1047A000B9607A603B600023FB77FB68BB61002344
:1047B0007B6100237B82BB69B3F85E31002B01D1A2
:1047C000F123FB7797F91F30002B4AD1BB69B3F86F
:1047D0005E21BB6993F8A2311946104602F093FAA4
:1047E0007861BB6993F88B317969184602F04AFB0E
:1047F0000246BB681A60BB6993F89C317B827B8A56
:104800001B029AB2BB6993F89D319BB213447B8221
:104810007B8A7969184602F075FB02467B681A604C
:10482000BB6993F8A0317B827B8A1B029AB2BB6979
:1048300093F8A1319BB213447B827B8A7969184635
:1048400002F060FB02463B681A60BB681A68BB69ED
:104850009A607B681A68BB69DA603B681A68BB6952
:104860001A6197F91F3018462037BD4680BD80B4C5
:1048700087B000AFF8600B467A60FB720023FB75CF
:10488000FB683B610123BB75FB7A072B1CD8FB7AC5
:10489000002B04D0FB7A012202FA03F3BB753B69BB
:1048A00093F8C521BB7D1340DAB27B681A70FB7A9E
:1048B000002B0BD07B681B781A46FB7A42FA03F375
:1048C000DAB27B681A7001E0FC23FB7597F91730A8
:1048D00018461C37BD4680BC704780B584B000AF19
:1048E000786039600023FB737B68BB603B68587855
:1048F0003B681978BB6803F2C3131A4602F0D4FB75
:104900003B6898783B68D978BB6803F5E2731A4630
:1049100002F007FC97F90F3018461037BD4680BDEE
:1049200080B584B000AF786039600023FB737B688A
:10493000BB60BB6893F8C3013B6801333A68194612
:1049400002F0B8FCBB6893F8C4013B68991C3B6853
:1049500003331A4602F0CEFB97F90F301846103792
:10496000BD4680BD80B586B000AF78603960002359
:10497000FB757B683B610023BB7300237B730023C3
:10498000FB733B6993F82A3207F10E0207F10D0120
:10499000184602F08FFCBA7B3B681A707A7B3B6842
:1049A0005A703B6993F82B32FB73FB7B1B09DAB21D
:1049B0003B68DA70FB7B03F00F03DAB23B689A7056
:1049C00097F9173018461837BD4680BD80B487B0B8
:1049D00000AFF8607A603B600B46FB720023FB750A
:1049E000FB683B61FB7A013B252B00F28E8001A224
:1049F00052F823F08D4A00088D4A00088D4A0008BD
:104A00008D4A00088D4A0008B74A0008B74A0008D6
:104A1000B74A00080B4B00080B4B00080B4B000873
:104A20000B4B00080B4B00080B4B00080B4B00080E
:104A30000B4B00088D4A0008B74A00080B4B0008D2
:104A40000B4B00080B4B00080B4B00080B4B0008EE
:104A50000B4B00080B4B00080B4B00080B4B0008DE
:104A60000B4B00080B4B00080B4B00080B4B0008CE
:104A70000B4B00080B4B00080B4B00080B4B0008BE
:104A8000E14A0008E14A0008E14A00083B69B3F83E
:104A9000CA207B681A803B69D3F8D0203B681A6033
:104AA0003B69D3F8D8203B6A1A603B69D3F8E4200D
:104AB0007B6A1A602CE03B69B3F8CC207B681A80D3
:104AC0003B69D3F8D4203B681A603B69D3F8DC20FB
:104AD0003B6A1A603B69D3F8E8207B6A1A6017E0EA
:104AE0003B69B3F8CC207B681A803B69D3F8D420AB
:104AF0003B681A603B69D3F8E0203B6A1A603B6967
:104B0000D3F8EC207B6A1A6002E0FC23FB7500BF3F
:104B100097F9173018461C37BD4680BC704700BF58
:104B200080B592B004AFF8607B600B46FB72134611
:104B30003B81002387F83730FB683B633B6B03F511
:104B4000B273FB623B6B03F5C273BB623B6B03F555
:104B5000CE737B623B6B03F5DA733B623B6B03F511
:104B6000E473FB613B6BA433BB613B6B03F53973AF
:104B70007B613B6BFA7A5A703B6B3A6CDA603B6B49
:104B80007A6C1A613B6BBA6C5A610321F86801F0C8
:104B90006CFDFB7A013B252B00F20C8101A252F83F
:104BA00023F000BF3D4C0008594C0008754C00082C
:104BB000914C0008AD4C0008C94C0008E54C0008B9
:104BC000014D0008B54D0008B54D0008B54D000871
:104BD000B54D0008B54D0008B54D0008B54D0008AD
:104BE000B54D00081D4D0008394D0008B54D0008B1
:104BF000B54D0008B54D0008B54D0008B54D00088D
:104C0000B54D0008B54D0008B54D0008B54D00087C
:104C1000B54D0008B54D0008B54D0008B54D00086C
:104C2000B54D0008B54D0008B54D0008B54D00085C
:104C3000554D0008754D0008954D0008BB6901935E
:104C4000FB6900933B6A7A6AB96AF86A01F091F9E4
:104C5000034687F83730B1E0BB690193FB690093E5
:104C60003B6A7A6AB96AF86A01F0A0FA034687F8E3
:104C70003730A3E0BB690193FB6900933B6A7A6A12
:104C8000B96AF86A01F0D3FA034687F8373095E03D
:104C9000BB690193FB6900933B6A7A6AB96AF86A57
:104CA00001F006FB034687F8373087E0BB690193C4
:104CB000FB6900933B6A7A6AB96AF86A01F01DFBE6
:104CC000034687F8373079E0BB690193FB690093AD
:104CD0003B6A7A6AB96AF86A01F034FB034687F8DE
:104CE00037306BE0BB690193FB6900933B6A7A6ADA
:104CF000B96AF86A01F060FB034687F837305DE077
:104D0000BB690193FB6900933B6A7A6AB96AF86AE6
:104D100001F08CFB034687F837304FE0BB69019305
:104D2000FB6900933B6A7A6AB96AF86A01F060FC31
:104D3000034687F8373041E0BB690193FB69009374
:104D40003B6A7A6AB96AF86A01F01CFC034687F884
:104D5000373033E07B690293BB690193FB690093B1
:104D60003B6A7A6AB96AF86A01F0C0FB034687F8C1
:104D7000373023E07B690293BB690193FB690093A1
:104D80003B6A7A6AB96AF86A01F08AFB034687F8D7
:104D9000373013E07B690293BB690193FB69009391
:104DA0003B6A7A6AB96AF86A01F0C6FB034687F87B
:104DB000373003E0FC2387F8373000BF97F93730EE
:104DC000002B05D1FB6A3A891A803B6B3A891A831A
:104DD00097F93730002B08D17B6C3A6C7968F8680A
:104DE000FFF7A2FC034687F8373097F93730002BDE
:104DF00006D1B96CF868FFF74AFC034687F83730EC
:104E000097F9373018463837BD4680BD80B485B035
:104E100000AF786039600023FB737B68BB60BB68C0
:104E2000B3F8A6213B681A8097F90F30184614375B
:104E3000BD4680BC704780B485B000AF78600B463B
:104E40007B800023FB737B68BB60BB687A88A3F818
:104E5000A62197F90F3018461437BD4680BC70471D
:104E600080B485B000AF786039600023FB737B6845
:104E7000BB60BB68B3F8A8213B681A8097F90F3074
:104E800018461437BD4680BC704780B485B000AF6B
:104E900078600B467B800023FB737B68BB60BB683C
:104EA0007A88A3F8A82197F90F3018461437BD4621
:104EB00080BC704780B485B000AF78600B46FB7053
:104EC0000023FB737B68BB60BB6893F8603103F021
:104ED0000303DAB2FB789B00DBB21344DAB2BB689F
:104EE00083F8602197F90F3018461437BD4680BC0F
:104EF0007047000080B5D0B000AF07F5A073A3F5F0
:104F00009E7318600846114607F5A073A3F23D137F
:104F100002461A7007F5A073A3F59F730A461A702C
:104F2000002387F83F3107F5A073A3F59E731B6834
:104F3000C7F83031D7F8303103F5AC73C7F82C31EE
:104F4000D7F830314233C7F82831D7F8303103F57C
:104F5000B273C7F82431D7F8303103F5C273C7F8FC
:104F60002031D7F8303103F5CE73C7F81C31D7F8AC
:104F7000303103F5DA73C7F81831D7F8303103F55B
:104F8000E473C7F81431D7F830312C33C7F8103137
:104F900007F10C03C7F838310023A7F83631002396
:104FA000A7F834310023A7F80E310023A7F80C31FD
:104FB000D7F8303107F5A072A2F23D1212789A703C
:104FC000D7F814311B795BB203F00F035AB207F51F
:104FD000A073A3F23D1393F9003013435BB2DAB22E
:104FE000D7F814311A71D7F83031B3F84221D7F815
:104FF0003031A3F87C21D7F8303193F8E632FF2B1B
:1050000004D1D7F83031002283F8E622D7F83031C6
:1050100093F8E532012B39D1D7F8303193F8E632E5
:10502000002B33D1D7F8303193F88621D7F83031BF
:1050300083F8E722D7F83031202283F88621D7F889
:10504000303193F8C53103F06003002B0CD1D7F851
:105050003031B3F958309BB29B009BB21AB2D7F8EB
:105060003031A3F8542004E0D7F830310022A3F8FF
:10507000542007F5A073A3F59F731B78042B05D864
:1050800007F5A073A3F59F7305221A70D7F8303186
:1050900093F8E532012B13D1D7F8303193F8E6328B
:1050A000012B0DD1D7F8303193F8E722D7F8303102
:1050B00083F8862107F5A073A3F59F7306221A7063
:1050C00007F5A073A3F59F731B78013B052B27D829
:1050D00001A252F823F000BF195100081151000835
:1050E0000951000801510008F9500008F15000086A
:1050F0000123A7F8343117E00D23A7F8343113E06A
:105100002423A7F834310FE04423A7F834310BE00F
:105110005A23A7F8343107E07123A7F8343103E0AC
:105120008323A7F8343100BFB7F83431C3F18803C3
:10513000A7F80C3107F10C03C7F838310023A7F8A2
:1051400036310BE0D7F838315A1CC7F83821002225
:105150001A70B7F836310133A7F83631B7F836216F
:10516000B7F80C319A42EDD307F5A073A3F59F73FE
:105170001B78052B17D997F93F31002B13D1B7F8BE
:105180003431C3F10103A7F80E31B7F80E3107F13E
:105190000C0213441A460B21D7F82C0102F0B8F880
:1051A000034687F83F3107F5A073A3F59F731B787B
:1051B000042B17D997F93F31002B13D1B7F83431AD
:1051C000C3F10D03A7F80E31B7F80E3107F10C0249
:1051D00013441A461721D7F8280102F075F903463F
:1051E00087F83F3107F5A073A3F59F731B78032B56
:1051F00017D997F93F31002B13D1B7F83431C3F1E8
:105200002403A7F80E31B7F80E3107F10C0213444E
:105210001A462021D7F8240102F094FA034687F8B1
:105220003F3107F5A073A3F59F731B78022B17D9A5
:1052300097F93F31002B13D1B7F83431C3F1440350
:10524000A7F80E31B7F80E3107F10C0213441A46D5
:105250001621D7F8200102F058FB034687F83F31AA
:1052600007F5A073A3F59F731B78012B17D997F946
:105270003F31002B13D1B7F83431C3F15A03A7F8EB
:105280000E31B7F80E3107F10C0213441A461721FC
:10529000D7F81C0102F0BDFB034687F83F3107F544
:1052A000A073A3F59F731B78002B36D097F93F317D
:1052B000002B32D1B7F83431C3F17103A7F80E31A6
:1052C000D7F814311B7903F02003002B17D0D7F83F
:1052D00010319B7843F00103DAB2D7F818311A7015
:1052E000D7F810319B7843F00103DAB2D7F81831C0
:1052F0001A73D7F810319A78D7F818319A74B7F82A
:105300000E3107F10C0213441A461221D7F8180186
:1053100002F001FC034687F83F3197F93F31002B3B
:1053200013D1B7F83431C3F18303A7F80E31B7F8BE
:105330000E3107F10C0213441A460521D7F8140167
:1053400002F06EFC034687F83F3197F93F31002B9E
:105350000FD1B7F80C3107F10C02B7F8341107F58B
:10536000A070A0F59E70006803F048F9034687F826
:105370003F3197F93F31002B09D107F5A073A3F511
:105380009E73186801F09AF9034687F83F3197F940
:105390003F31002B09D107F5A073A3F59E73186860
:1053A00001F05EFA034687F83F3197F93F3118461E
:1053B00007F5A077BD4680BD80B5C8B000AF07F542
:1053C0009073A3F58E7318600A4607F59073A3F2E5
:1053D0001D131A70002387F81F3107F59073A3F58A
:1053E0008E731B68C7F81831D7F8183103F5E773C7
:1053F000C7F81431D7F8183103F52273C7F8103104
:10540000D7F8183103F52B73C7F80C318823A7F8A8
:105410000A310023A7F808310023A7F81C3107F54B
:105420009073A3F21D131B78012B08D0022B0DD112
:10543000B7F80A31C3F58773A7F81C310AE0B7F84B
:105440000A31C3F1D503A7F81C3103E02C23A7F8D8
:105450001C3100BF97F91F31002B0FD1B7F81C3159
:1054600007F10802B7F80A1107F59070A0F58E70E1
:10547000006803F0F9F8034687F81F3107F59073C9
:10548000A3F21D131B78012B17D997F91F31002B9D
:1054900013D1B7F80A31C3F1D603A7F80831B7F82A
:1054A000083107F108021344D7F80C2119463820B7
:1054B00002F047FD034687F81F3107F59073A3F20A
:1054C0001D131B78002B17D097F91F31002B13D118
:1054D000B7F80A31C3F1B403A7F80831B7F80831B7
:1054E00007F108021344D7F810211946212002F0D1
:1054F000C7FC034687F81F3197F91F31002B10D1E5
:105500000023A7F80831B7F8083107F1080213445F
:10551000D7F8142119462C2002F0BCFB034687F86B
:105520001F3197F91F31184607F59077BD4680BDAA
:1055300080B588B000AFF8600B467A60FB7200233C
:10554000FB77FB68BB61FB6803F53D737B617B699F
:105550003B6197F91F30002B06D1FB7A1946F8689A
:10556000FFF72AFF0346FB7797F91F30002B0CD17A
:10557000BB69B3F89C301846BB6903F5E771BB699A
:1055800003F522723B6900F05DF8BB6993F8E532E0
:10559000012B1FD197F91F30002B0ED1BB6993F857
:1055A000E632002B09D1F86801F01BFE0346FB77B9
:1055B000BB69012283F8E6220CE097F91F30002B2B
:1055C00008D1BB6993F8E632012B03D1BB690222F3
:1055D00083F8E622BB6993F82C203B691A70BB69FB
:1055E00093F830203B695A7084223969786804F056
:1055F00010F897F91F30002B04D1F86801F0E6F895
:105600000346FB7797F91F3018462037BD4680BD0B
:1056100080B584B000AF78600B46FB700023FB734D
:1056200097F90F30002B07D1FB78032219467868D1
:10563000FFF760FC0346FB7397F90F3018461037ED
:10564000BD4680BD80B489B000AFF860B9607A60B3
:105650003B600023FB7700233B6100237B61BB6839
:10566000DA783B689A703B680433BB610023FB77B0
:10567000D0E0BB69FA7F1A70BB6900225A60BB6830
:10568000DB78002B0AD1BB685B7803F01F03092B82
:1056900004D1BB69132283F83E2007E0BB685B7826
:1056A00003F01F03DAB2BB6983F83E20FB7F002BB7
:1056B00002D0012B5DD0A7E0BB689B78072B04D1FB
:1056C000BB685A8ABB691A820CE0BB689B78082BBE
:1056D00004D1BB689A8ABB691A8203E0BB689A88C6
:1056E000BB691A82BB681A8ABB699A85BB68DA8A69
:1056F000BB69DA85BB681A89BB691A86BB685B8996
:105700005B017B617B69B3F5803F02D34FF6FF738A
:105710007B617B699AB2BB691A87BB689A89BB694E
:105720005A87BB68DB893B613B69FA6802FB03F37C
:105730003B613B6903F580633B613B69002B01DA08
:1057400003F2FF73DB123B613B691AB2BB699A87B4
:105750007B685A68BB695A627B689A68BB699A62BF
:105760007B68DA68BB695A617B681A68BB691A6230
:105770004AE0BB681A8BBB691A82BB685A8BBB694B
:105780009A85BB694FF6FF72DA85BB689A8BBB6955
:105790001A86BB68DB8B5B017B617B69B3F5803F5D
:1057A00002D34FF6FF737B617B699AB2BB691A879C
:1057B000BB681A8CBB695A87BB685B8C3B613B69D1
:1057C000FA6802FB03F33B613B6903F580633B61CD
:1057D0003B69002B01DA03F2FF73DB123B613B698B
:1057E0001AB2BB699A877B685A69BB695A627B683F
:1057F0009A69BB699A627B68DA69BB695A617B689E
:105800001A69BB691A6200BFBB694033BB61FB7F89
:105810000133FB77FB7F012B7FF62BAF3B68002228
:10582000DA70BB685B7803F01F03112B8CBF012279
:105830000022D2B2002A17D10E4A22FA03F303F053
:105840000103002B14BF01230023DBB2002B0BD07C
:10585000BB685B7803F01F03DAB23B68DA703B6821
:10586000002283F8422000BF00BF2437BD4680BC21
:10587000704700BF0E20020080B487B000AFF86010
:105880000B467A607B810023FB75FB683B617B895B
:10589000A3F50043382B00F2048201A252F823F052
:1058A0008559000893590008A1590008AF5900080C
:1058B000BD590008CB590008D9590008E75900081C
:1058C000F5590008035A0008115A00081F5A000829
:1058D0002D5A00083B5A0008495A0008575A000838
:1058E000655A0008735A0008815A00088F5A000848
:1058F0009D5A0008AB5A0008B95A0008C75A000858
:10590000D55A0008E35A0008F15A0008FF5A000867
:105910000D5B00081B5B0008295B0008375B000873
:10592000455B0008535B0008615B00086F5B000883
:105930007D5B00088B5B0008995B0008A75B000893
:10594000B55B0008C35B0008D15B0008DF5B0008A3
:10595000ED5B0008FB5B0008095C0008175C0008B1
:10596000255C0008335C0008415C00084F5C0008BF
:105970005D5C00086B5C0008795C0008875C0008CF
:10598000955C00083B69B3F8A4301A467B681A603E
:105990008EE13B69B3F8A6301A467B681A6087E14E
:1059A0003B69B3F8A8301A467B681A6080E13B690E
:1059B00093F8B0301A467B681A6079E13B6993F836
:1059C000B1301A467B681A6072E13B69B3F8B230B5
:1059D0001A467B681A606BE13B69B3F89C301A4643
:1059E0007B681A6064E13B6993F8B4301A467B68BF
:1059F0001A605DE13B69B3F8B6301A467B681A60FD
:105A000056E13B69B3F8B8301A467B681A604FE13B
:105A10003B69B3F8BA301A467B681A6048E13B69C3
:105A2000B3F8BC301A467B681A6041E13B69B3F8B1
:105A3000BE301A467B681A603AE13B69B3F8C03061
:105A40001A467B681A6033E13B6993F8C2301A4604
:105A50007B681A602CE13B6993F8C3301A467B6877
:105A60001A6025E13B6993F8C4301A467B681A60D6
:105A70001EE13B6993F840311A467B681A6017E1D2
:105A80003B6993F8C5301A467B681A6010E13B69A0
:105A900093F8C7301A467B681A6009E13B6993F8AE
:105AA000C8301A467B681A6002E13B69B3F93E319F
:105AB0001A467B681A60FBE03B6993F8AA301A46E5
:105AC0007B681A60F4E03B6993F8AB301A467B6858
:105AD0001A60EDE03B6993F8AC301A467B681A60B7
